:0A0000001CC071C0FDCFB0C086C067
:10000A00FACF74C0F8CFF7CFF6CFF5CFF4CFF3CF4E
:10001A00F2CFF1CFF0CFEFCFEECFEDCF08E911411C
:10002A00E04202690040FB7BF9EBDBBBFA0000000F
:10003A00F894EE27ECBBF1E0FBBFEBBFE5BFF8E1BC
:10004A00F1BDE1BD8DE0A2E0BB27ED938A95E9F70A
:10005A0080E094E0A0E6ED930197E9F7E8E3F0E0A9
:10006A0085919591009761F0A591B59105901590AC
:10007A00BF01F00105900D920197E1F7FB01F0CF66
:10008A00EFE5EDBFE4E0EEBFC0E6D1E06DC0E8EE1B
:10009A00F3E06E167F0608F5D301EAE0F0E0FDD042
:1000AA00E0936001D301EAE0F0E0E4D03F01D3013C
:1000BA00EAE0F0E0F2D0E0936101D301EAE0F0E097
:1000CA00D9D03F01D301EAE0F0E0E7D0E093620142
:1000DA00D301EAE0F0E0CED03F010895EA93FA9323
:1000EA00EFB7EA93F40131964F010BC0EA93FA9302
:1000FA00EFB7EA93540188249924E0E0F0E0FDBDCB
:10010A00ECBDE991EFBFF991E99118950A92EA934A
:10011A00FA93EFB7EA93E52DE03019F4AA98A89A72
:10012A0009C0E13019F4A898A99A04C0E23061F430
:10013A00A998AA9AE52DF0E0E05AFE4FE081F0E096
:10014A00EA5DFF4F049002BA5394E3E0E51509F41F
:10015A005524E991EFBFF991E99109901895EA932D
:10016A00E0E0E5BBE9911895E0E0E8BBE7BBE5BB59
:10017A00E7E0E4BBE4E0E2BBEBEFE1BBE0E0EFBDCC
:10018A00E5E0EEBDE0E0F0E0FDBDECBDE7BDE6BDBB
:10019A00EEE1EBBDE4E8EABDE0E0E9BDE8BDE2BDC1
:1001AA00E4E0E5BDE0E0E4BDE0E8E3BDEBB7E06430
:1001BA00EBBFE2E0E5BFE0E4EABFE9BFE0E8E8B9A7
:1001CA00E0E0E0BF882499247894E0E0E0936301BA
:1001DA00E0936401A0916301B0916401139714F54F
:1001EA00EBE0F0E06F01E1E1F0E0CE16DF0684F427
:1001FA00F601E0936001C0926101C0926201E2E3FC
:10020A00F0E0FA93EA9322D0F60131966F01EBCF30
:10021A00E0916301F09164013196E0936301F093F8
:10022A006401D8CFE0E5E9BFB09B02C0E0ED01C0B0
:10023A00E0E5E9BFD501E4E2F0E014D0DF01E8E24D
:10024A00F0E018D03F0123DFEFCFFFCFE991F9911A
:10025A00309639F080ED97E00197F1F7A89531973C
:10026A00C9F70895FA9FF02DEB9FF00DEA9FE02D54
:10027A00F10D08950024112490E1AA0FBB1F001C60
:10028A00111C0E1A1F0A18F40E0E1F1E01C0A160BF
:10029A009A9599F7FD01D0010895ECDFFD010895C3
:00000001FF
